{
  "contractName": "SolnSquareVerifier",
  "abi": [
    {
      "inputs": [
        {
          "internalType": "string",
          "name": "name",
          "type": "string"
        },
        {
          "internalType": "string",
          "name": "symbol",
          "type": "string"
        },
        {
          "internalType": "string",
          "name": "baseTokenURI",
          "type": "string"
        },
        {
          "internalType": "address",
          "name": "verifierAddress",
          "type": "address"
        }
      ],
      "payable": false,
      "stateMutability": "nonpayable",
      "type": "constructor"
    },
    {
      "anonymous": false,
      "inputs": [
        {
          "indexed": true,
          "internalType": "address",
          "name": "owner",
          "type": "address"
        },
        {
          "indexed": true,
          "internalType": "address",
          "name": "approved",
          "type": "address"
        },
        {
          "indexed": true,
          "internalType": "uint256",
          "name": "tokenId",
          "type": "uint256"
        }
      ],
      "name": "Approval",
      "type": "event"
    },
    {
      "anonymous": false,
      "inputs": [
        {
          "indexed": true,
          "internalType": "address",
          "name": "owner",
          "type": "address"
        },
        {
          "indexed": true,
          "internalType": "address",
          "name": "operator",
          "type": "address"
        },
        {
          "indexed": false,
          "internalType": "bool",
          "name": "approved",
          "type": "bool"
        }
      ],
      "name": "ApprovalForAll",
      "type": "event"
    },
    {
      "anonymous": false,
      "inputs": [
        {
          "indexed": false,
          "internalType": "address",
          "name": "statusModifier",
          "type": "address"
        },
        {
          "indexed": false,
          "internalType": "bool",
          "name": "_paused",
          "type": "bool"
        }
      ],
      "name": "Paused",
      "type": "event"
    },
    {
      "anonymous": false,
      "inputs": [
        {
          "indexed": false,
          "internalType": "uint256",
          "name": "index",
          "type": "uint256"
        },
        {
          "indexed": false,
          "internalType": "address",
          "name": "solutionAddress",
          "type": "address"
        }
      ],
      "name": "SolutionAdded",
      "type": "event"
    },
    {
      "anonymous": false,
      "inputs": [
        {
          "indexed": true,
          "internalType": "address",
          "name": "from",
          "type": "address"
        },
        {
          "indexed": true,
          "internalType": "address",
          "name": "to",
          "type": "address"
        },
        {
          "indexed": true,
          "internalType": "uint256",
          "name": "tokenId",
          "type": "uint256"
        }
      ],
      "name": "Transfer",
      "type": "event"
    },
    {
      "anonymous": false,
      "inputs": [
        {
          "indexed": false,
          "internalType": "address",
          "name": "statusModifier",
          "type": "address"
        },
        {
          "indexed": false,
          "internalType": "bool",
          "name": "_paused",
          "type": "bool"
        }
      ],
      "name": "Unpaused",
      "type": "event"
    },
    {
      "anonymous": false,
      "inputs": [
        {
          "indexed": false,
          "internalType": "address",
          "name": "oldOwner",
          "type": "address"
        },
        {
          "indexed": false,
          "internalType": "address",
          "name": "newOwner",
          "type": "address"
        }
      ],
      "name": "ownerShipTransfered",
      "type": "event"
    },
    {
      "constant": false,
      "inputs": [
        {
          "internalType": "bytes32",
          "name": "_myid",
          "type": "bytes32"
        },
        {
          "internalType": "string",
          "name": "_result",
          "type": "string"
        }
      ],
      "name": "__callback",
      "outputs": [],
      "payable": false,
      "stateMutability": "nonpayable",
      "type": "function"
    },
    {
      "constant": false,
      "inputs": [
        {
          "internalType": "bytes32",
          "name": "_myid",
          "type": "bytes32"
        },
        {
          "internalType": "string",
          "name": "_result",
          "type": "string"
        },
        {
          "internalType": "bytes",
          "name": "_proof",
          "type": "bytes"
        }
      ],
      "name": "__callback",
      "outputs": [],
      "payable": false,
      "stateMutability": "nonpayable",
      "type": "function"
    },
    {
      "constant": false,
      "inputs": [
        {
          "internalType": "address",
          "name": "to",
          "type": "address"
        },
        {
          "internalType": "uint256",
          "name": "tokenId",
          "type": "uint256"
        },
        {
          "internalType": "string",
          "name": "tokenUri",
          "type": "string"
        }
      ],
      "name": "_mint",
      "outputs": [
        {
          "internalType": "bool",
          "name": "",
          "type": "bool"
        }
      ],
      "payable": false,
      "stateMutability": "nonpayable",
      "type": "function"
    },
    {
      "constant": true,
      "inputs": [],
      "name": "_owner",
      "outputs": [
        {
          "internalType": "address",
          "name": "",
          "type": "address"
        }
      ],
      "payable": false,
      "stateMutability": "view",
      "type": "function"
    },
    {
      "constant": false,
      "inputs": [
        {
          "internalType": "address",
          "name": "to",
          "type": "address"
        },
        {
          "internalType": "uint256",
          "name": "tokenId",
          "type": "uint256"
        }
      ],
      "name": "approve",
      "outputs": [],
      "payable": false,
      "stateMutability": "nonpayable",
      "type": "function"
    },
    {
      "constant": true,
      "inputs": [
        {
          "internalType": "address",
          "name": "owner",
          "type": "address"
        }
      ],
      "name": "balanceOf",
      "outputs": [
        {
          "internalType": "uint256",
          "name": "",
          "type": "uint256"
        }
      ],
      "payable": false,
      "stateMutability": "view",
      "type": "function"
    },
    {
      "constant": true,
      "inputs": [],
      "name": "baseTokenURI",
      "outputs": [
        {
          "internalType": "string",
          "name": "",
          "type": "string"
        }
      ],
      "payable": false,
      "stateMutability": "view",
      "type": "function"
    },
    {
      "constant": false,
      "inputs": [
        {
          "internalType": "string",
          "name": "newBaseTokenUri",
          "type": "string"
        }
      ],
      "name": "changeBaseTokenUri",
      "outputs": [],
      "payable": false,
      "stateMutability": "nonpayable",
      "type": "function"
    },
    {
      "constant": true,
      "inputs": [
        {
          "internalType": "uint256",
          "name": "tokenId",
          "type": "uint256"
        }
      ],
      "name": "checkIfTokenExists",
      "outputs": [
        {
          "internalType": "bool",
          "name": "",
          "type": "bool"
        }
      ],
      "payable": false,
      "stateMutability": "view",
      "type": "function"
    },
    {
      "constant": true,
      "inputs": [
        {
          "internalType": "uint256",
          "name": "tokenId",
          "type": "uint256"
        }
      ],
      "name": "getApproved",
      "outputs": [
        {
          "internalType": "address",
          "name": "",
          "type": "address"
        }
      ],
      "payable": false,
      "stateMutability": "view",
      "type": "function"
    },
    {
      "constant": true,
      "inputs": [],
      "name": "getOwner",
      "outputs": [
        {
          "internalType": "address",
          "name": "ownerAddress",
          "type": "address"
        }
      ],
      "payable": false,
      "stateMutability": "view",
      "type": "function"
    },
    {
      "constant": true,
      "inputs": [
        {
          "internalType": "address",
          "name": "owner",
          "type": "address"
        },
        {
          "internalType": "address",
          "name": "operator",
          "type": "address"
        }
      ],
      "name": "isApprovedForAll",
      "outputs": [
        {
          "internalType": "bool",
          "name": "",
          "type": "bool"
        }
      ],
      "payable": false,
      "stateMutability": "view",
      "type": "function"
    },
    {
      "constant": true,
      "inputs": [],
      "name": "name",
      "outputs": [
        {
          "internalType": "string",
          "name": "",
          "type": "string"
        }
      ],
      "payable": false,
      "stateMutability": "view",
      "type": "function"
    },
    {
      "constant": true,
      "inputs": [
        {
          "internalType": "uint256",
          "name": "tokenId",
          "type": "uint256"
        }
      ],
      "name": "ownerOf",
      "outputs": [
        {
          "internalType": "address",
          "name": "",
          "type": "address"
        }
      ],
      "payable": false,
      "stateMutability": "view",
      "type": "function"
    },
    {
      "constant": false,
      "inputs": [
        {
          "internalType": "bool",
          "name": "contractStatus",
          "type": "bool"
        }
      ],
      "name": "pauseContract",
      "outputs": [],
      "payable": false,
      "stateMutability": "nonpayable",
      "type": "function"
    },
    {
      "constant": false,
      "inputs": [
        {
          "internalType": "address",
          "name": "from",
          "type": "address"
        },
        {
          "internalType": "address",
          "name": "to",
          "type": "address"
        },
        {
          "internalType": "uint256",
          "name": "tokenId",
          "type": "uint256"
        }
      ],
      "name": "safeTransferFrom",
      "outputs": [],
      "payable": false,
      "stateMutability": "nonpayable",
      "type": "function"
    },
    {
      "constant": false,
      "inputs": [
        {
          "internalType": "address",
          "name": "from",
          "type": "address"
        },
        {
          "internalType": "address",
          "name": "to",
          "type": "address"
        },
        {
          "internalType": "uint256",
          "name": "tokenId",
          "type": "uint256"
        },
        {
          "internalType": "bytes",
          "name": "_data",
          "type": "bytes"
        }
      ],
      "name": "safeTransferFrom",
      "outputs": [],
      "payable": false,
      "stateMutability": "nonpayable",
      "type": "function"
    },
    {
      "constant": false,
      "inputs": [
        {
          "internalType": "address",
          "name": "to",
          "type": "address"
        },
        {
          "internalType": "bool",
          "name": "approved",
          "type": "bool"
        }
      ],
      "name": "setApprovalForAll",
      "outputs": [],
      "payable": false,
      "stateMutability": "nonpayable",
      "type": "function"
    },
    {
      "constant": true,
      "inputs": [
        {
          "internalType": "bytes4",
          "name": "interfaceId",
          "type": "bytes4"
        }
      ],
      "name": "supportsInterface",
      "outputs": [
        {
          "internalType": "bool",
          "name": "",
          "type": "bool"
        }
      ],
      "payable": false,
      "stateMutability": "view",
      "type": "function"
    },
    {
      "constant": true,
      "inputs": [],
      "name": "symbol",
      "outputs": [
        {
          "internalType": "string",
          "name": "",
          "type": "string"
        }
      ],
      "payable": false,
      "stateMutability": "view",
      "type": "function"
    },
    {
      "constant": true,
      "inputs": [
        {
          "internalType": "uint256",
          "name": "index",
          "type": "uint256"
        }
      ],
      "name": "tokenByIndex",
      "outputs": [
        {
          "internalType": "uint256",
          "name": "",
          "type": "uint256"
        }
      ],
      "payable": false,
      "stateMutability": "view",
      "type": "function"
    },
    {
      "constant": true,
      "inputs": [
        {
          "internalType": "address",
          "name": "owner",
          "type": "address"
        },
        {
          "internalType": "uint256",
          "name": "index",
          "type": "uint256"
        }
      ],
      "name": "tokenOfOwnerByIndex",
      "outputs": [
        {
          "internalType": "uint256",
          "name": "",
          "type": "uint256"
        }
      ],
      "payable": false,
      "stateMutability": "view",
      "type": "function"
    },
    {
      "constant": true,
      "inputs": [
        {
          "internalType": "uint256",
          "name": "tokenId",
          "type": "uint256"
        }
      ],
      "name": "tokenURI",
      "outputs": [
        {
          "internalType": "string",
          "name": "",
          "type": "string"
        }
      ],
      "payable": false,
      "stateMutability": "view",
      "type": "function"
    },
    {
      "constant": true,
      "inputs": [],
      "name": "totalSupply",
      "outputs": [
        {
          "internalType": "uint256",
          "name": "",
          "type": "uint256"
        }
      ],
      "payable": false,
      "stateMutability": "view",
      "type": "function"
    },
    {
      "constant": false,
      "inputs": [
        {
          "internalType": "address",
          "name": "from",
          "type": "address"
        },
        {
          "internalType": "address",
          "name": "to",
          "type": "address"
        },
        {
          "internalType": "uint256",
          "name": "tokenId",
          "type": "uint256"
        }
      ],
      "name": "transferFrom",
      "outputs": [],
      "payable": false,
      "stateMutability": "nonpayable",
      "type": "function"
    },
    {
      "constant": false,
      "inputs": [
        {
          "internalType": "address",
          "name": "newOwner",
          "type": "address"
        }
      ],
      "name": "transferOwnership",
      "outputs": [],
      "payable": false,
      "stateMutability": "nonpayable",
      "type": "function"
    },
    {
      "constant": false,
      "inputs": [
        {
          "internalType": "uint256[2]",
          "name": "a",
          "type": "uint256[2]"
        },
        {
          "internalType": "uint256[2][2]",
          "name": "b",
          "type": "uint256[2][2]"
        },
        {
          "internalType": "uint256[2]",
          "name": "c",
          "type": "uint256[2]"
        },
        {
          "internalType": "uint256[2]",
          "name": "input",
          "type": "uint256[2]"
        },
        {
          "internalType": "address",
          "name": "solAddress",
          "type": "address"
        },
        {
          "internalType": "uint256",
          "name": "tokenId",
          "type": "uint256"
        }
      ],
      "name": "addSolution",
      "outputs": [],
      "payable": false,
      "stateMutability": "nonpayable",
      "type": "function"
    },
    {
      "constant": true,
      "inputs": [
        {
          "internalType": "uint256[2]",
          "name": "a",
          "type": "uint256[2]"
        },
        {
          "internalType": "uint256[2][2]",
          "name": "b",
          "type": "uint256[2][2]"
        },
        {
          "internalType": "uint256[2]",
          "name": "c",
          "type": "uint256[2]"
        },
        {
          "internalType": "uint256[2]",
          "name": "input",
          "type": "uint256[2]"
        }
      ],
      "name": "hasSolution",
      "outputs": [
        {
          "internalType": "bool",
          "name": "",
          "type": "bool"
        }
      ],
      "payable": false,
      "stateMutability": "view",
      "type": "function"
    },
    {
      "constant": true,
      "inputs": [
        {
          "internalType": "uint256[2]",
          "name": "a",
          "type": "uint256[2]"
        },
        {
          "internalType": "uint256[2][2]",
          "name": "b",
          "type": "uint256[2][2]"
        },
        {
          "internalType": "uint256[2]",
          "name": "c",
          "type": "uint256[2]"
        },
        {
          "internalType": "uint256[2]",
          "name": "input",
          "type": "uint256[2]"
        }
      ],
      "name": "getSolutionInfo",
      "outputs": [
        {
          "internalType": "bool",
          "name": "solution",
          "type": "bool"
        },
        {
          "internalType": "uint256",
          "name": "id",
          "type": "uint256"
        },
        {
          "internalType": "address",
          "name": "solAddress",
          "type": "address"
        },
        {
          "internalType": "bool",
          "name": "mint",
          "type": "bool"
        }
      ],
      "payable": false,
      "stateMutability": "view",
      "type": "function"
    },
    {
      "constant": false,
      "inputs": [
        {
          "internalType": "address",
          "name": "to",
          "type": "address"
        },
        {
          "internalType": "uint256",
          "name": "tokenId",
          "type": "uint256"
        },
        {
          "internalType": "string",
          "name": "tokenUri",
          "type": "string"
        }
      ],
      "name": "mint",
      "outputs": [],
      "payable": false,
      "stateMutability": "nonpayable",
      "type": "function"
    }
  ],
  "bytecode": "0x60806040523480156200001157600080fd5b50604051620049ed380380620049ed833981810160405260808110156200003757600080fd5b81019080805160405193929190846401000000008211156200005857600080fd5b838201915060208201858111156200006f57600080fd5b82518660018202830111640100000000821117156200008d57600080fd5b8083526020830192505050908051906020019080838360005b83811015620000c3578082015181840152602081019050620000a6565b50505050905090810190601f168015620000f15780820380516001836020036101000a031916815260200191505b50604052602001805160405193929190846401000000008211156200011557600080fd5b838201915060208201858111156200012c57600080fd5b82518660018202830111640100000000821117156200014a57600080fd5b8083526020830192505050908051906020019080838360005b838110156200018057808201518184015260208101905062000163565b50505050905090810190601f168015620001ae5780820380516001836020036101000a031916815260200191505b5060405260200180516040519392919084640100000000821115620001d257600080fd5b83820191506020820185811115620001e957600080fd5b82518660018202830111640100000000821117156200020757600080fd5b8083526020830192505050908051906020019080838360005b838110156200023d57808201518184015260208101905062000220565b50505050905090810190601f1680156200026b5780820380516001836020036101000a031916815260200191505b5060405260200180519060200190929190505050838383828282336000806101000a81548173ffffffffffffffffffffffffffffffffffffffff021916908373ffffffffffffffffffffffffffffffffffffffff16021790555060008060146101000a81548160ff021916908315150217905550620002f76301ffc9a760e01b620003db60201b60201c565b6200030f6380ac58cd60e01b620003db60201b60201c565b6200032763780e9d6360e01b620003db60201b60201c565b82600f90805190602001906200033f9291906200047b565b508160109080519060200190620003589291906200047b565b508060119080519060200190620003719291906200047b565b506200038a635b5e139f60e01b620003db60201b60201c565b50505050505080601360006101000a81548173ffffffffffffffffffffffffffffffffffffffff021916908373ffffffffffffffffffffffffffffffffffffffff160217905550505050506200052a565b63ffffffff60e01b817bffffffffffffffffffffffffffffffffffffffffffffffffffffffff191614156200040f57600080fd5b6001806000837bffffffffffffffffffffffffffffffffffffffffffffffffffffffff19167bffffffffffffffffffffffffffffffffffffffffffffffffffffffff1916815260200190815260200160002060006101000a81548160ff02191690831515021790555050565b828054600181600116156101000203166002900490600052602060002090601f016020900481019282601f10620004be57805160ff1916838001178555620004ef565b82800160010185558215620004ef579182015b82811115620004ee578251825591602001919060010190620004d1565b5b509050620004fe919062000502565b5090565b6200052791905b808211156200052357600081600090555060010162000509565b5090565b90565b6144b3806200053a6000396000f3fe608060405234801561001057600080fd5b50600436106101da5760003560e01c80636352211e11610104578063b2bdfa7b116100a2578063d547cfb711610071578063d547cfb71461127e578063e272b89214611301578063e985e9c514611331578063f2fde38b146113ad576101da565b8063b2bdfa7b14610fa3578063b88d4fde14610fed578063c87b56dd146110f2578063d3fc986414611199576101da565b8063893d20e8116100de578063893d20e814610d8957806395d89b4114610dd3578063a22cb46514610e56578063a987d4c614610ea6576101da565b80636352211e14610c4a57806370a0823114610cb8578063793408c714610d10576101da565b806323b872dd1161017c57806338bbfa501161014b57806338bbfa50146108805780633a18ba1c146109dc57806342842e0e14610b9a5780634f6ccce714610c08576101da565b806323b872dd1461057257806327dc297e146105e05780632f745c59146106a557806330f8417114610707576101da565b8063095ea7b3116101b8578063095ea7b31461033557806318160ddd146103835780631b334918146103a157806321517f01146103e7576101da565b806301ffc9a7146101df57806306fdde0314610244578063081812fc146102c7575b600080fd5b61022a600480360360208110156101f557600080fd5b8101908080357bffffffffffffffffffffffffffffffffffffffffffffffffffffffff191690602001909291905050506113f1565b604051808215151515815260200191505060405180910390f35b61024c611459565b6040518080602001828103825283818151815260200191508051906020019080838360005b8381101561028c578082015181840152602081019050610271565b50505050905090810190601f1680156102b95780820380516001836020036101000a031916815260200191505b509250505060405180910390f35b6102f3600480360360208110156102dd57600080fd5b81019080803590602001909291905050506114fb565b604051808273ffffffffffffffffffffffffffffffffffffffff1673ffffffffffffffffffffffffffffffffffffffff16815260200191505060405180910390f35b6103816004803603604081101561034b57600080fd5b81019080803573ffffffffffffffffffffffffffffffffffffffff16906020019092919080359060200190929190505050611538565b005b61038b61174e565b6040518082815260200191505060405180910390f35b6103cd600480360360208110156103b757600080fd5b810190808035906020019092919050505061175b565b604051808215151515815260200191505060405180910390f35b61057060048036036101808110156103fe57600080fd5b8101908080604001906002806020026040519081016040528092919082600260200280828437600081840152601f19601f82011690508083019250505050505091929192908060800190600280602002604051908101604052809291906000905b828210156104b3578382604002016002806020026040519081016040528092919082600260200280828437600081840152601f19601f8201169050808301925050505050508152602001906001019061045f565b50505050919291929080604001906002806020026040519081016040528092919082600260200280828437600081840152601f19601f820116905080830192505050505050919291929080604001906002806020026040519081016040528092919082600260200280828437600081840152601f19601f8201169050808301925050505050509192919290803573ffffffffffffffffffffffffffffffffffffffff16906020019092919080359060200190929190505050611890565b005b6105de6004803603606081101561058857600080fd5b81019080803573ffffffffffffffffffffffffffffffffffffffff169060200190929190803573ffffffffffffffffffffffffffffffffffffffff16906020019092919080359060200190929190505050611e3d565b005b6106a3600480360360408110156105f657600080fd5b81019080803590602001909291908035906020019064010000000081111561061d57600080fd5b82018360208201111561062f57600080fd5b8035906020019184600183028401116401000000008311171561065157600080fd5b91908080601f016020809104026020016040519081016040528093929190818152602001838380828437600081840152601f19601f820116905080830192505050505050509192919290505050611e60565b005b6106f1600480360360408110156106bb57600080fd5b81019080803573ffffffffffffffffffffffffffffffffffffffff16906020019092919080359060200190929190505050611ea3565b6040518082815260200191505060405180910390f35b610866600480360361014081101561071e57600080fd5b8101908080604001906002806020026040519081016040528092919082600260200280828437600081840152601f19601f82011690508083019250505050505091929192908060800190600280602002604051908101604052809291906000905b828210156107d3578382604002016002806020026040519081016040528092919082600260200280828437600081840152601f19601f8201169050808301925050505050508152602001906001019061077f565b50505050919291929080604001906002806020026040519081016040528092919082600260200280828437600081840152601f19601f820116905080830192505050505050919291929080604001906002806020026040519081016040528092919082600260200280828437600081840152601f19601f8201169050808301925050505050509192919290505050611f16565b604051808215151515815260200191505060405180910390f35b6109da6004803603606081101561089657600080fd5b8101908080359060200190929190803590602001906401000000008111156108bd57600080fd5b8201836020820111156108cf57600080fd5b803590602001918460018302840111640100000000831117156108f157600080fd5b91908080601f016020809104026020016040519081016040528093929190818152602001838380828437600081840152601f19601f8201169050808301925050505050505091929192908035906020019064010000000081111561095457600080fd5b82018360208201111561096657600080fd5b8035906020019184600183028401116401000000008311171561098857600080fd5b91908080601f016020809104026020016040519081016040528093929190818152602001838380828437600081840152601f19601f82011690508083019250505050505050919291929050505061204c565b005b610b3b60048036036101408110156109f357600080fd5b8101908080604001906002806020026040519081016040528092919082600260200280828437600081840152601f19601f82011690508083019250505050505091929192908060800190600280602002604051908101604052809291906000905b82821015610aa8578382604002016002806020026040519081016040528092919082600260200280828437600081840152601f19601f82011690508083019250505050505081526020019060010190610a54565b50505050919291929080604001906002806020026040519081016040528092919082600260200280828437600081840152601f19601f820116905080830192505050505050919291929080604001906002806020026040519081016040528092919082600260200280828437600081840152601f19601f8201169050808301925050505050509192919290505050612051565b60405180851515151581526020018481526020018373ffffffffffffffffffffffffffffffffffffffff1673ffffffffffffffffffffffffffffffffffffffff1681526020018215151515815260200194505050505060405180910390f35b610c0660048036036060811015610bb057600080fd5b81019080803573ffffffffffffffffffffffffffffffffffffffff169060200190929190803573ffffffffffffffffffffffffffffffffffffffff16906020019092919080359060200190929190505050612207565b005b610c3460048036036020811015610c1e57600080fd5b8101908080359060200190929190505050612227565b6040518082815260200191505060405180910390f35b610c7660048036036020811015610c6057600080fd5b810190808035906020019092919050505061225b565b604051808273ffffffffffffffffffffffffffffffffffffffff1673ffffffffffffffffffffffffffffffffffffffff16815260200191505060405180910390f35b610cfa60048036036020811015610cce57600080fd5b81019080803573ffffffffffffffffffffffffffffffffffffffff169060200190929190505050612298565b6040518082815260200191505060405180910390f35b610d8760048036036020811015610d2657600080fd5b8101908080359060200190640100000000811115610d4357600080fd5b820183602082011115610d5557600080fd5b80359060200191846001830284011164010000000083111715610d7757600080fd5b90919293919293905050506122e8565b005b610d916123c0565b604051808273ffffffffffffffffffffffffffffffffffffffff1673ffffffffffffffffffffffffffffffffffffffff16815260200191505060405180910390f35b610ddb6123e9565b6040518080602001828103825283818151815260200191508051906020019080838360005b83811015610e1b578082015181840152602081019050610e00565b50505050905090810190601f168015610e485780820380516001836020036101000a031916815260200191505b509250505060405180910390f35b610ea460048036036040811015610e6c57600080fd5b81019080803573ffffffffffffffffffffffffffffffffffffffff16906020019092919080351515906020019092919050505061248b565b005b610f8960048036036060811015610ebc57600080fd5b81019080803573ffffffffffffffffffffffffffffffffffffffff1690602001909291908035906020019092919080359060200190640100000000811115610f0357600080fd5b820183602082011115610f1557600080fd5b80359060200191846001830284011164010000000083111715610f3757600080fd5b91908080601f016020809104026020016040519081016040528093929190818152602001838380828437600081840152601f19601f8201169050808301925050505050505091929192905050506125c5565b604051808215151515815260200191505060405180910390f35b610fab6126a9565b604051808273ffffffffffffffffffffffffffffffffffffffff1673ffffffffffffffffffffffffffffffffffffffff16815260200191505060405180910390f35b6110f06004803603608081101561100357600080fd5b81019080803573ffffffffffffffffffffffffffffffffffffffff169060200190929190803573ffffffffffffffffffffffffffffffffffffffff169060200190929190803590602001909291908035906020019064010000000081111561106a57600080fd5b82018360208201111561107c57600080fd5b8035906020019184600183028401116401000000008311171561109e57600080fd5b91908080601f016020809104026020016040519081016040528093929190818152602001838380828437600081840152601f19601f8201169050808301925050505050505091929192905050506126ce565b005b61111e6004803603602081101561110857600080fd5b81019080803590602001909291905050506126f4565b6040518080602001828103825283818151815260200191508051906020019080838360005b8381101561115e578082015181840152602081019050611143565b50505050905090810190601f16801561118b5780820380516001836020036101000a031916815260200191505b509250505060405180910390f35b61127c600480360360608110156111af57600080fd5b81019080803573ffffffffffffffffffffffffffffffffffffffff16906020019092919080359060200190929190803590602001906401000000008111156111f657600080fd5b82018360208201111561120857600080fd5b8035906020019184600183028401116401000000008311171561122a57600080fd5b91908080601f016020809104026020016040519081016040528093929190818152602001838380828437600081840152601f19601f820116905080830192505050505050509192919290505050612824565b005b611286612a2d565b6040518080602001828103825283818151815260200191508051906020019080838360005b838110156112c65780820151818401526020810190506112ab565b50505050905090810190601f1680156112f35780820380516001836020036101000a031916815260200191505b509250505060405180910390f35b61132f6004803603602081101561131757600080fd5b81019080803515159060200190929190505050612acf565b005b6113936004803603604081101561134757600080fd5b81019080803573ffffffffffffffffffffffffffffffffffffffff169060200190929190803573ffffffffffffffffffffffffffffffffffffffff169060200190929190505050612cf4565b604051808215151515815260200191505060405180910390f35b6113ef600480360360208110156113c357600080fd5b81019080803573ffffffffffffffffffffffffffffffffffffffff169060200190929190505050612d88565b005b600060016000837bffffffffffffffffffffffffffffffffffffffffffffffffffffffff19167bffffffffffffffffffffffffffffffffffffffffffffffffffffffff1916815260200190815260200160002060009054906101000a900460ff169050919050565b6060600f8054600181600116156101000203166002900480601f0160208091040260200160405190810160405280929190818152602001828054600181600116156101000203166002900480156114f15780601f106114c6576101008083540402835291602001916114f1565b820191906000526020600020905b8154815290600101906020018083116114d457829003601f168201915b5050505050905090565b60006003600083815260200190815260200160002060009054906101000a900473ffffffffffffffffffffffffffffffffffffffff169050919050565b60006115438261225b565b90508073ffffffffffffffffffffffffffffffffffffffff168373ffffffffffffffffffffffffffffffffffffffff16146115c9576040517f08c379a00000000000000000000000000000000000000000000000000000000081526004018080602001828103825260238152602001806143fc6023913960400191505060405180910390fd5b6000809054906101000a900473ffffffffffffffffffffffffffffffffffffffff1673ffffffffffffffffffffffffffffffffffffffff163373ffffffffffffffffffffffffffffffffffffffff16148061162a57506116298333612cf4565b5b61169c576040517f08c379a00000000000000000000000000000000000000000000000000000000081526004018080602001828103825260168152602001807f556e76616c69642072657175657374206f726967696e0000000000000000000081525060200191505060405180910390fd5b826003600084815260200190815260200160002060006101000a81548173ffffffffffffffffffffffffffffffffffffffff021916908373ffffffffffffffffffffffffffffffffffffffff160217905550818373ffffffffffffffffffffffffffffffffffffffff168273ffffffffffffffffffffffffffffffffffffffff167f8c5be1e5ebec7d5bd14f71427d1e84f3dd0314c0f7b2291e5b200ac8c7c3b92560405160405180910390a4505050565b6000600880549050905090565b60008060009054906101000a900473ffffffffffffffffffffffffffffffffffffffff1673ffffffffffffffffffffffffffffffffffffffff163373ffffffffffffffffffffffffffffffffffffffff161461181f576040517f08c379a000000000000000000000000000000000000000000000000000000000815260040180806020018281038252601c8152602001807f43616c6c6572206973206e6f7420636f6e7472616374206f776e65720000000081525060200191505060405180910390fd5b60006002600084815260200190815260200160002060009054906101000a900473ffffffffffffffffffffffffffffffffffffffff169050600073ffffffffffffffffffffffffffffffffffffffff168173ffffffffffffffffffffffffffffffffffffffff161415915050919050565b6000868686866040516020018085600260200280838360005b838110156118c45780820151818401526020810190506118a9565b505050509050018460026000925b818410156119185782846020020151600260200280838360005b838110156119075780820151818401526020810190506118ec565b5050505090500192600101926118d2565b9250505083600260200280838360005b83811015611943578082015181840152602081019050611928565b5050505090500182600260200280838360005b83811015611971578082015181840152602081019050611956565b505050509050019450505050506040516020818303038152906040528051906020012090506015600082815260200190815260200160002060000160009054906101000a900460ff1615611a10576040517f08c379a00000000000000000000000000000000000000000000000000000000081526004018080602001828103825260258152602001806142e66025913960400191505060405180910390fd5b6014600083815260200190815260200160002060000160009054906101000a900460ff1615611a8a576040517f08c379a000000000000000000000000000000000000000000000000000000000815260040180806020018281038252604b81526020018061430b604b913960600191505060405180910390fd5b6000601360009054906101000a900473ffffffffffffffffffffffffffffffffffffffff1673ffffffffffffffffffffffffffffffffffffffff1663621e9ec0898989896040518563ffffffff1660e01b81526004018085600260200280838360005b83811015611b08578082015181840152602081019050611aed565b505050509050018460026000925b81841015611b5c5782846020020151600260200280838360005b83811015611b4b578082015181840152602081019050611b30565b505050509050019260010192611b16565b9250505083600260200280838360005b83811015611b87578082015181840152602081019050611b6c565b5050505090500182600260200280838360005b83811015611bb5578082015181840152602081019050611b9a565b50505050905001945050505050602060405180830381600087803b158015611bdc57600080fd5b505af1158015611bf0573d6000803e3d6000fd5b505050506040513d6020811015611c0657600080fd5b8101908080519060200190929190505050905080611c8c576040517f08c379a000000000000000000000000000000000000000000000000000000000815260040180806020018281038252601b8152602001807f54686520766572696669636174696f6e20686173206661696c6564000000000081525060200191505060405180910390fd5b60405180608001604052806001151581526020018481526020018573ffffffffffffffffffffffffffffffffffffffff168152602001600015158152506015600084815260200190815260200160002060008201518160000160006101000a81548160ff0219169083151502179055506020820151816001015560408201518160020160006101000a81548173ffffffffffffffffffffffffffffffffffffffff021916908373ffffffffffffffffffffffffffffffffffffffff16021790555060608201518160020160146101000a81548160ff0219169083151502179055509050506040518060400160405280600115158152602001838152506014600085815260200190815260200160002060008201518160000160006101000a81548160ff021916908315150217905550602082015181600101559050507f078793128cefb19aac38a33f9e5df39f67716907f6d747e8065545699e0b2b8d8385604051808381526020018273ffffffffffffffffffffffffffffffffffffffff1673ffffffffffffffffffffffffffffffffffffffff1681526020019250505060405180910390a15050505050505050565b611e473382612f4b565b611e5057600080fd5b611e5b838383612fe0565b505050565b611e9f828260006040519080825280601f01601f191660200182016040528015611e995781602001600182028038833980820191505090505b5061204c565b5050565b6000611eae83612298565b8210611eb957600080fd5b600660008473ffffffffffffffffffffffffffffffffffffffff1673ffffffffffffffffffffffffffffffffffffffff1681526020019081526020016000208281548110611f0357fe5b9060005260206000200154905092915050565b600080858585856040516020018085600260200280838360005b83811015611f4b578082015181840152602081019050611f30565b505050509050018460026000925b81841015611f9f5782846020020151600260200280838360005b83811015611f8e578082015181840152602081019050611f73565b505050509050019260010192611f59565b9250505083600260200280838360005b83811015611fca578082015181840152602081019050611faf565b5050505090500182600260200280838360005b83811015611ff8578082015181840152602081019050611fdd565b505050509050019450505050506040516020818303038152906040528051906020012090506015600082815260200190815260200160002060000160009054906101000a900460ff16915050949350505050565b505050565b6000806000806000888888886040516020018085600260200280838360005b8381101561208b578082015181840152602081019050612070565b505050509050018460026000925b818410156120df5782846020020151600260200280838360005b838110156120ce5780820151818401526020810190506120b3565b505050509050019260010192612099565b9250505083600260200280838360005b8381101561210a5780820151818401526020810190506120ef565b5050505090500182600260200280838360005b8381101561213857808201518184015260208101905061211d565b505050509050019450505050506040516020818303038152906040528051906020012090506015600082815260200190815260200160002060000160009054906101000a900460ff1660156000838152602001908152602001600020600101546015600084815260200190815260200160002060020160009054906101000a900473ffffffffffffffffffffffffffffffffffffffff166015600085815260200190815260200160002060020160149054906101000a900460ff16945094509450945050945094509450949050565b612222838383604051806020016040528060008152506126ce565b505050565b600061223161174e565b821061223c57600080fd5b6008828154811061224957fe5b90600052602060002001549050919050565b60006002600083815260200190815260200160002060009054906101000a900473ffffffffffffffffffffffffffffffffffffffff169050919050565b60006122e1600460008473ffffffffffffffffffffffffffffffffffffffff1673ffffffffffffffffffffffffffffffffffffffff168152602001908152602001600020613004565b9050919050565b6000809054906101000a900473ffffffffffffffffffffffffffffffffffffffff1673ffffffffffffffffffffffffffffffffffffffff163373ffffffffffffffffffffffffffffffffffffffff16146123aa576040517f08c379a000000000000000000000000000000000000000000000000000000000815260040180806020018281038252601c8152602001807f43616c6c6572206973206e6f7420636f6e7472616374206f776e65720000000081525060200191505060405180910390fd5b8181601191906123bb92919061413f565b505050565b60008060009054906101000a900473ffffffffffffffffffffffffffffffffffffffff16905090565b606060108054600181600116156101000203166002900480601f0160208091040260200160405190810160405280929190818152602001828054600181600116156101000203166002900480156124815780601f1061245657610100808354040283529160200191612481565b820191906000526020600020905b81548152906001019060200180831161246457829003601f168201915b5050505050905090565b3373ffffffffffffffffffffffffffffffffffffffff168273ffffffffffffffffffffffffffffffffffffffff1614156124c457600080fd5b80600560003373ffffffffffffffffffffffffffffffffffffffff1673ffffffffffffffffffffffffffffffffffffffff16815260200190815260200160002060008473ffffffffffffffffffffffffffffffffffffffff1673ffffffffffffffffffffffffffffffffffffffff16815260200190815260200160002060006101000a81548160ff0219169083151502179055508173ffffffffffffffffffffffffffffffffffffffff163373ffffffffffffffffffffffffffffffffffffffff167f17307eab39ab6107e8899845ad3d59bd9653f200f220920489ca2b5937696c3183604051808215151515815260200191505060405180910390a35050565b60008060009054906101000a900473ffffffffffffffffffffffffffffffffffffffff1673ffffffffffffffffffffffffffffffffffffffff163373ffffffffffffffffffffffffffffffffffffffff1614612689576040517f08c379a000000000000000000000000000000000000000000000000000000000815260040180806020018281038252601c8152602001807f43616c6c6572206973206e6f7420636f6e7472616374206f776e65720000000081525060200191505060405180910390fd5b6126938484613012565b61269d8383613033565b50600190509392505050565b6000809054906101000a900473ffffffffffffffffffffffffffffffffffffffff1681565b6126d9848484611e3d565b6126e58484848461318a565b6126ee57600080fd5b50505050565b60606126ff82613373565b612771576040517f08c379a000000000000000000000000000000000000000000000000000000000815260040180806020018281038252600f8152602001807f546f6b656e206e6f7420666f756e64000000000000000000000000000000000081525060200191505060405180910390fd5b601260008381526020019081526020016000208054600181600116156101000203166002900480601f0160208091040260200160405190810160405280929190818152602001828054600181600116156101000203166002900480156128185780601f106127ed57610100808354040283529160200191612818565b820191906000526020600020905b8154815290600101906020018083116127fb57829003601f168201915b50505050509050919050565b6000601460008481526020019081526020016000206001015490506015600082815260200190815260200160002060000160009054906101000a900460ff166128b8576040517f08c379a00000000000000000000000000000000000000000000000000000000081526004018080602001828103825260298152602001806143856029913960400191505060405180910390fd5b6015600082815260200190815260200160002060020160149054906101000a900460ff1615612932576040517f08c379a00000000000000000000000000000000000000000000000000000000081526004018080602001828103825260238152602001806143ae6023913960400191505060405180910390fd5b6015600082815260200190815260200160002060020160009054906101000a900473ffffffffffffffffffffffffffffffffffffffff1673ffffffffffffffffffffffffffffffffffffffff168473ffffffffffffffffffffffffffffffffffffffff16146129ec576040517f08c379a00000000000000000000000000000000000000000000000000000000081526004018080602001828103825260558152602001806142916055913960600191505060405180910390fd5b60016015600083815260200190815260200160002060020160146101000a81548160ff021916908315150217905550612a268484846125c5565b5050505050565b606060118054600181600116156101000203166002900480601f016020809104026020016040519081016040528092919081815260200182805460018160011615610100020316600290048015612ac55780601f10612a9a57610100808354040283529160200191612ac5565b820191906000526020600020905b815481529060010190602001808311612aa857829003601f168201915b5050505050905090565b6000809054906101000a900473ffffffffffffffffffffffffffffffffffffffff1673ffffffffffffffffffffffffffffffffffffffff163373ffffffffffffffffffffffffffffffffffffffff1614612b91576040517f08c379a000000000000000000000000000000000000000000000000000000000815260040180806020018281038252601c8152602001807f43616c6c6572206973206e6f7420636f6e7472616374206f776e65720000000081525060200191505060405180910390fd5b60008060149054906101000a900460ff16905081600060146101000a81548160ff021916908315150217905550600060149054906101000a900460ff16151581151514612cf057600060149054906101000a900460ff1615612c70577fe8699cf681560fd07de85543bd994263f4557bdc5179dd702f256d15fd083e1d33600060149054906101000a900460ff16604051808373ffffffffffffffffffffffffffffffffffffffff1673ffffffffffffffffffffffffffffffffffffffff168152602001821515151581526020019250505060405180910390a1612cef565b7fcb4bb8bb1e41fbe4c7bffd024efe036fbb4b06b5d5bd06e2ec6a563735fcfeab33600060149054906101000a900460ff16604051808373ffffffffffffffffffffffffffffffffffffffff1673ffffffffffffffffffffffffffffffffffffffff168152602001821515151581526020019250505060405180910390a15b5b5050565b6000600560008473ffffffffffffffffffffffffffffffffffffffff1673ffffffffffffffffffffffffffffffffffffffff16815260200190815260200160002060008373ffffffffffffffffffffffffffffffffffffffff1673ffffffffffffffffffffffffffffffffffffffff16815260200190815260200160002060009054906101000a900460ff16905092915050565b6000809054906101000a900473ffffffffffffffffffffffffffffffffffffffff1673ffffffffffffffffffffffffffffffffffffffff163373ffffffffffffffffffffffffffffffffffffffff1614612e4a576040517f08c379a000000000000000000000000000000000000000000000000000000000815260040180806020018281038252601c8152602001807f43616c6c6572206973206e6f7420636f6e7472616374206f776e65720000000081525060200191505060405180910390fd5b60008060009054906101000a900473ffffffffffffffffffffffffffffffffffffffff169050816000806101000a81548173ffffffffffffffffffffffffffffffffffffffff021916908373ffffffffffffffffffffffffffffffffffffffff1602179055507ff3bcb778d34a4721d91e8b6fbfdd84afa134acaead1870b7859dfda5b1c1801c8183604051808373ffffffffffffffffffffffffffffffffffffffff1673ffffffffffffffffffffffffffffffffffffffff1681526020018273ffffffffffffffffffffffffffffffffffffffff1673ffffffffffffffffffffffffffffffffffffffff1681526020019250505060405180910390a15050565b600080612f578361225b565b90508073ffffffffffffffffffffffffffffffffffffffff168473ffffffffffffffffffffffffffffffffffffffff161480612fc657508373ffffffffffffffffffffffffffffffffffffffff16612fae846114fb565b73ffffffffffffffffffffffffffffffffffffffff16145b80612fd75750612fd68185612cf4565b5b91505092915050565b612feb8383836133e5565b612ff58382613640565b612fff82826137de565b505050565b600081600001549050919050565b61301c82826138a5565b61302682826137de565b61302f81613a82565b5050565b606061303e83613373565b6130b0576040517f08c379a000000000000000000000000000000000000000000000000000000000815260040180806020018281038252601a8152602001807f5468697320746f6b656e20646f6573206e6f742065786973747300000000000081525060200191505060405180910390fd5b61315d60118054600181600116156101000203166002900480601f0160208091040260200160405190810160405280929190818152602001828054600181600116156101000203166002900480156131495780601f1061311e57610100808354040283529160200191613149565b820191906000526020600020905b81548152906001019060200180831161312c57829003601f168201915b50505050508361315886613ace565b613bfb565b6012600085815260200190815260200160002090805190602001906131839291906141bf565b5092915050565b60006131ab8473ffffffffffffffffffffffffffffffffffffffff16613c31565b6131b8576001905061336b565b60008473ffffffffffffffffffffffffffffffffffffffff1663150b7a02338887876040518563ffffffff1660e01b8152600401808573ffffffffffffffffffffffffffffffffffffffff1673ffffffffffffffffffffffffffffffffffffffff1681526020018473ffffffffffffffffffffffffffffffffffffffff1673ffffffffffffffffffffffffffffffffffffffff16815260200183815260200180602001828103825283818151815260200191508051906020019080838360005b83811015613293578082015181840152602081019050613278565b50505050905090810190601f1680156132c05780820380516001836020036101000a031916815260200191505b5095505050505050602060405180830381600087803b1580156132e257600080fd5b505af11580156132f6573d6000803e3d6000fd5b505050506040513d602081101561330c57600080fd5b8101908080519060200190929190505050905063150b7a0260e01b7bffffffffffffffffffffffffffffffffffffffffffffffffffffffff1916817bffffffffffffffffffffffffffffffffffffffffffffffffffffffff1916149150505b949350505050565b6000806002600084815260200190815260200160002060009054906101000a900473ffffffffffffffffffffffffffffffffffffffff169050600073ffffffffffffffffffffffffffffffffffffffff168173ffffffffffffffffffffffffffffffffffffffff161415915050919050565b6133ee8161225b565b73ffffffffffffffffffffffffffffffffffffffff168373ffffffffffffffffffffffffffffffffffffffff1614613471576040517f08c379a000000000000000000000000000000000000000000000000000000000815260040180806020018281038252602e81526020018061441f602e913960400191505060405180910390fd5b600073ffffffffffffffffffffffffffffffffffffffff168273ffffffffffffffffffffffffffffffffffffffff1614156134f7576040517f08c379a000000000000000000000000000000000000000000000000000000000815260040180806020018281038252603281526020018061444d6032913960400191505060405180910390fd5b61350081613c7c565b613547600460008473ffffffffffffffffffffffffffffffffffffffff1673ffffffffffffffffffffffffffffffffffffffff168152602001908152602001600020613d3a565b61358e600460008573ffffffffffffffffffffffffffffffffffffffff1673ffffffffffffffffffffffffffffffffffffffff168152602001908152602001600020613d50565b816002600083815260200190815260200160002060006101000a81548173ffffffffffffffffffffffffffffffffffffffff021916908373ffffffffffffffffffffffffffffffffffffffff160217905550808273ffffffffffffffffffffffffffffffffffffffff168473ffffffffffffffffffffffffffffffffffffffff167fddf252ad1be2c89b69c2b068fc378daa952ba7f163c4a11628f55a4df523b3ef60405160405180910390a4505050565b60006136986001600660008673ffffffffffffffffffffffffffffffffffffffff1673ffffffffffffffffffffffffffffffffffffffff16815260200190815260200160002080549050613d7390919063ffffffff16565b9050600060076000848152602001908152602001600020549050818114613785576000600660008673ffffffffffffffffffffffffffffffffffffffff1673ffffffffffffffffffffffffffffffffffffffff168152602001908152602001600020838154811061370557fe5b9060005260206000200154905080600660008773ffffffffffffffffffffffffffffffffffffffff1673ffffffffffffffffffffffffffffffffffffffff168152602001908152602001600020838154811061375d57fe5b9060005260206000200181905550816007600083815260200190815260200160002081905550505b600660008573ffffffffffffffffffffffffffffffffffffffff1673ffffffffffffffffffffffffffffffffffffffff1681526020019081526020016000208054809190600190036137d7919061423f565b5050505050565b600660008373ffffffffffffffffffffffffffffffffffffffff1673ffffffffffffffffffffffffffffffffffffffff168152602001908152602001600020805490506007600083815260200190815260200160002081905550600660008373ffffffffffffffffffffffffffffffffffffffff1673ffffffffffffffffffffffffffffffffffffffff1681526020019081526020016000208190806001815401808255809150509060018203906000526020600020016000909192909190915055505050565b6138ae81613373565b15613904576040517f08c379a000000000000000000000000000000000000000000000000000000000815260040180806020018281038252602f815260200180614356602f913960400191505060405180910390fd5b600073ffffffffffffffffffffffffffffffffffffffff168273ffffffffffffffffffffffffffffffffffffffff16141561398a576040517f08c379a000000000000000000000000000000000000000000000000000000000815260040180806020018281038252602b8152602001806143d1602b913960400191505060405180910390fd5b6139d1600460008473ffffffffffffffffffffffffffffffffffffffff1673ffffffffffffffffffffffffffffffffffffffff168152602001908152602001600020613d3a565b816002600083815260200190815260200160002060006101000a81548173ffffffffffffffffffffffffffffffffffffffff021916908373ffffffffffffffffffffffffffffffffffffffff160217905550808273ffffffffffffffffffffffffffffffffffffffff163373ffffffffffffffffffffffffffffffffffffffff167fddf252ad1be2c89b69c2b068fc378daa952ba7f163c4a11628f55a4df523b3ef60405160405180910390a45050565b6008805490506009600083815260200190815260200160002081905550600881908060018154018082558091505090600182039060005260206000200160009091929091909150555050565b60606000821415613b16576040518060400160405280600181526020017f30000000000000000000000000000000000000000000000000000000000000008152509050613bf6565b600082905060005b60008214613b40578080600101915050600a8281613b3857fe5b049150613b1e565b6060816040519080825280601f01601f191660200182016040528015613b755781602001600182028038833980820191505090505b50905060006001830390505b60008614613bee57600a8681613b9357fe5b0660300160f81b82828060019003935081518110613bad57fe5b60200101907effffffffffffffffffffffffffffffffffffffffffffffffffffffffffffff1916908160001a905350600a8681613be657fe5b049550613b81565b819450505050505b919050565b6060613c288484846040518060200160405280600081525060405180602001604052806000815250613dbd565b90509392505050565b60008060007fc5d2460186f7233c927e7db2dcc703c0e500b653ca82273b7bfad8045d85a47060001b9050833f9150808214158015613c7357506000801b8214155b92505050919050565b600073ffffffffffffffffffffffffffffffffffffffff166003600083815260200190815260200160002060009054906101000a900473ffffffffffffffffffffffffffffffffffffffff1673ffffffffffffffffffffffffffffffffffffffff1614613d375760006003600083815260200190815260200160002060006101000a81548173ffffffffffffffffffffffffffffffffffffffff021916908373ffffffffffffffffffffffffffffffffffffffff1602179055505b50565b6001816000016000828254019250508190555050565b613d6860018260000154613d7390919063ffffffff16565b816000018190555050565b6000613db583836040518060400160405280601e81526020017f536166654d6174683a207375627472616374696f6e206f766572666c6f77000081525061407f565b905092915050565b6060808690506060869050606086905060608690506060869050606081518351855187518951010101016040519080825280601f01601f191660200182016040528015613e195781602001600182028038833980820191505090505b509050606081905060008090506000809050600090505b8851811015613e9e57888181518110613e4557fe5b602001015160f81c60f81b838380600101945081518110613e6257fe5b60200101907effffffffffffffffffffffffffffffffffffffffffffffffffffffffffffff1916908160001a9053508080600101915050613e30565b600090505b8751811015613f1157878181518110613eb857fe5b602001015160f81c60f81b838380600101945081518110613ed557fe5b60200101907effffffffffffffffffffffffffffffffffffffffffffffffffffffffffffff1916908160001a9053508080600101915050613ea3565b600090505b8651811015613f8457868181518110613f2b57fe5b602001015160f81c60f81b838380600101945081518110613f4857fe5b60200101907effffffffffffffffffffffffffffffffffffffffffffffffffffffffffffff1916908160001a9053508080600101915050613f16565b600090505b8551811015613ff757858181518110613f9e57fe5b602001015160f81c60f81b838380600101945081518110613fbb57fe5b60200101907effffffffffffffffffffffffffffffffffffffffffffffffffffffffffffff1916908160001a9053508080600101915050613f89565b600090505b845181101561406a5784818151811061401157fe5b602001015160f81c60f81b83838060010194508151811061402e57fe5b60200101907effffffffffffffffffffffffffffffffffffffffffffffffffffffffffffff1916908160001a9053508080600101915050613ffc565b82995050505050505050505095945050505050565b600083831115829061412c576040517f08c379a00000000000000000000000000000000000000000000000000000000081526004018080602001828103825283818151815260200191508051906020019080838360005b838110156140f15780820151818401526020810190506140d6565b50505050905090810190601f16801561411e5780820380516001836020036101000a031916815260200191505b509250505060405180910390fd5b5060008385039050809150509392505050565b828054600181600116156101000203166002900490600052602060002090601f016020900481019282601f1061418057803560ff19168380011785556141ae565b828001600101855582156141ae579182015b828111156141ad578235825591602001919060010190614192565b5b5090506141bb919061426b565b5090565b828054600181600116156101000203166002900490600052602060002090601f016020900481019282601f1061420057805160ff191683800117855561422e565b8280016001018555821561422e579182015b8281111561422d578251825591602001919060010190614212565b5b50905061423b919061426b565b5090565b81548183558181111561426657818360005260206000209182019101614265919061426b565b5b505050565b61428d91905b80821115614289576000816000905550600101614271565b5090565b9056fe4661696c65642e20546865207573657220616464726573207573656420746f206d696e7420697320646966666572656e742066726f6d207468652076616c69646174696f6e206f776e6572206164647265737365734120536f6c7574696f6e2068617320616c7265616479206265656e2067656e6572617465645468697320746f6b656e49642068617320616c7265616479206265656e20736f6c7665642e2047656e65726174652061206e657720736f6c7574696f6e2077697468205a6f6b726174657354686520746f6b656e20796f752061726520747279696e6720746f206d696e7420616c72656164792065786973747343616e206e6f74206d696e7420776974686f75742076616c696461746520617574656e74696369747943616e206e6f74206d696e7420616e206974656d20616c7265616479206d696e746564596f752063616e206e6f74206d696e74207468697320746f6b656e20746f20746869732061646472657373596f7520617265206e6f7420746865206f776e6572206f66207468697320746f6b656e596f752063616e206e6f74207472616e73666572206120746f6b656e2074686174206973206e6f7420796f757273596f752063616e206e6f74207472616e73666572206120746f6b656e20746f20616e20696e76616c69642061646472657373a265627a7a72315820788d261bf3a2da9958a8a16350040f1a5d542ebf224a2a34fa311ea1c3ece1ce64736f6c63430005100032",
  "source": "pragma solidity >=0.4.21 <0.6.0;\r\n\r\nimport \"./ERC721MintableComplete.sol\";\r\nimport \"./Verifier.sol\";\r\n\r\n// TODO define another contract named SolnSquareVerifier that inherits from your ERC721Mintable class\r\ncontract SolnSquareVerifier is ERC721MintableComplete {\r\n\r\n    Verifier verifier;\r\n\r\n    constructor(string memory name, string memory symbol, string memory baseTokenURI, address verifierAddress) \r\n                                    ERC721MintableComplete(name, symbol, baseTokenURI) public \r\n    {\r\n        verifier = Verifier(verifierAddress);\r\n    }    \r\n\r\n    // TODO define a solutions struct that can hold an index & an address\r\n    struct Solution {\r\n        bool hasSolution;\r\n        uint256 index;\r\n        address solutionAddress;\r\n        bool isMinted;\r\n    }\r\n\r\n    // TODO define an array of the above struct\r\n    //map tokens ids to keys that can be used to access the sctruct SolutionKey\r\n    struct SolutionKey {\r\n        bool isKeyValid;\r\n        bytes32 key;\r\n    }\r\n    mapping(uint256 => SolutionKey) solutionsKeys;\r\n\r\n    // TODO define a mapping to store unique solutions submitted\r\n    mapping(bytes32 => Solution) solutions;\r\n\r\n    // TODO Create an event to emit when a solution is added\r\n    event SolutionAdded (uint256 index, address solutionAddress);\r\n\r\n    // TODO Create a function to add the solutions to the array and emit the event\r\n    //https://zokrates.github.io/examples/sha256example.html?highlight=verifyTx#prove-knowledge-of-pre-image\r\n\r\n    //bkp parameters\r\n    // uint[2] memory a,\r\n    // uint[2] memory a_p,\r\n    // uint[2][2] memory b,\r\n    // uint[2] memory b_p,\r\n    // uint[2] memory c,\r\n    // uint[2] memory c_p,\r\n    // uint[2] memory h,\r\n    // uint[2] memory k,\r\n    // uint[2] memory input,\r\n    // address solAddress,\r\n    // uint256 tokenId\r\n\r\n    function addSolution \r\n                        (\r\n                            uint[2] memory a,\r\n                            uint[2][2] memory b,\r\n                            uint[2] memory c,\r\n                            uint[2] memory input,\r\n                            address solAddress,\r\n                            uint256 tokenId\r\n                        )\r\n                        public\r\n    {\r\n        //generate a key to put in Solutions mapping and array\r\n        bytes32 solutionKey = keccak256(abi.encodePacked(a, b, c, input));\r\n        \r\n        //check if solution already exists\r\n        require(!solutions[solutionKey].hasSolution, \"A Solution has already been generated\");\r\n        require(!solutionsKeys[tokenId].isKeyValid, \"This tokenId has already been solved. Generate a new solution with Zokrates\");\r\n\r\n        //Try to solve\r\n        //bool isVerified = verifier.verifyTx(a, a_p, b, b_p, c, c_p, h, k, input);\r\n        bool isVerified = verifier.verifyTx(a, b, c, input);\r\n        require(isVerified, \"The verification has failed\");        \r\n\r\n        solutions[solutionKey] = Solution ({\r\n            hasSolution: true,\r\n            index: tokenId,\r\n            solutionAddress: solAddress,\r\n            isMinted: false\r\n        });\r\n\r\n        solutionsKeys[tokenId] = SolutionKey ({\r\n            isKeyValid: true,\r\n            key: solutionKey\r\n        });\r\n\r\n        emit SolutionAdded(tokenId, solAddress);\r\n    }\r\n\r\n    function hasSolution (\r\n                        uint[2] memory a,\r\n                        uint[2][2] memory b,\r\n                        uint[2] memory c,\r\n                        uint[2] memory input\r\n                        )\r\n                        public\r\n                        view\r\n                        returns (bool) {\r\n        bytes32 solutionKey = keccak256(abi.encodePacked(a, b, c, input));\r\n        return(solutions[solutionKey].hasSolution);\r\n    }\r\n\r\n    function getSolutionInfo (\r\n                        uint[2] memory a,\r\n                        uint[2][2] memory b,\r\n                        uint[2] memory c,\r\n                        uint[2] memory input\r\n                        )\r\n                        public\r\n                        view\r\n                        returns (bool solution, uint256 id, address solAddress, bool mint) {\r\n        bytes32 solutionKey = keccak256(abi.encodePacked(a, b, c, input));\r\n        return(solutions[solutionKey].hasSolution, solutions[solutionKey].index, solutions[solutionKey].solutionAddress, solutions[solutionKey].isMinted);\r\n    }\r\n\r\n    // TODO Create a function to mint new NFT only after the solution has been verified\r\n    //  - make sure the solution is unique (has not been used before)\r\n    //  - make sure you handle metadata as well as tokenSuplly\r\n    function mint (address to, uint256 tokenId, string memory tokenUri) public {\r\n        \r\n        //check if passed through verifyTx and if can be minted\r\n        bytes32 solutionKey = solutionsKeys[tokenId].key;\r\n        require(solutions[solutionKey].hasSolution, \"Can not mint without validate autenticity\");\r\n        require(!solutions[solutionKey].isMinted, \"Can not mint an item already minted\");\r\n        require(to == solutions[solutionKey].solutionAddress, \"Failed. The user addres used to mint is different from the validation owner addresses\");\r\n        \r\n        solutions[solutionKey].isMinted = true;\r\n        super._mint(to, tokenId, tokenUri);\r\n    }\r\n\r\n}\r\n\r\n\r\n\r\n\r\n\r\n  \r\n\r\n\r\n\r\n\r\n\r\n\r\n\r\n\r\n\r\n\r\n\r\n\r\n\r\n\r\n\r\n\r\n\r\n\r\n\r\n\r\n\r\n\r\n\r\n\r\n\r\n\r\n",
  "sourcePath": "C:\\Users\\zeh_1\\Documents\\Udacity\\P07\\RealStateMarketplace\\eth-contracts\\contracts\\SolnSquareVerifier.sol",
  "compiler": {
    "name": "solc",
    "version": "0.5.16+commit.9c3226ce.Emscripten.clang"
  },
  "schemaVersion": "3.4.3",
  "updatedAt": "2022-04-02T13:19:42.846Z",
  "networkType": "ethereum",
  "devdoc": {
    "methods": {
      "isApprovedForAll(address,address)": {
        "details": "Tells whether an operator is approved by a given owner",
        "params": {
          "operator": "operator address which you want to query the approval of",
          "owner": "owner address which you want to query the approval of"
        },
        "return": "bool whether the given operator is approved by the given owner"
      },
      "setApprovalForAll(address,bool)": {
        "details": "Sets or unsets the approval of a given operator An operator is allowed to transfer all tokens of the sender on their behalf",
        "params": {
          "approved": "representing the status of the approval to be set",
          "to": "operator address to set the approval"
        }
      },
      "supportsInterface(bytes4)": {
        "details": "implement supportsInterface(bytes4) using a lookup table"
      },
      "tokenByIndex(uint256)": {
        "details": "Gets the token ID at a given index of all the tokens in this contract Reverts if the index is greater or equal to the total number of tokens",
        "params": {
          "index": "uint256 representing the index to be accessed of the tokens list"
        },
        "return": "uint256 token ID at the given index of the tokens list"
      },
      "tokenOfOwnerByIndex(address,uint256)": {
        "details": "Gets the token ID at a given index of the tokens list of the requested owner",
        "params": {
          "index": "uint256 representing the index to be accessed of the requested tokens list",
          "owner": "address owning the tokens list to be accessed"
        },
        "return": "uint256 token ID at the given index of the tokens list owned by the requested address"
      },
      "totalSupply()": {
        "details": "Gets the total amount of tokens stored by the contract",
        "return": "uint256 representing the total amount of tokens"
      }
    }
  },
  "userdoc": {
    "methods": {}
  }
}